S0200000586D656761426F6F746C6F616465724E524632344C3031702E737265639E
S2140600001D94FE001D941F011D941F011D941F01C3
S2140600101D941F011D941F011D941F011D941F0191
S2140600201D941F011D941F011D941F011D941F0181
S2140600301D941F011D941F011D941F011D941F0171
S2140600401D941F011D941F011D941F011D941F0161
S2140600501D941F011D941F011D941F011D941F0151
S2140600601D941F011D9424091D9438091D942E09FC
S2140600701D9442091D9456091D944C091D941F0192
S2140600801D941F011D941F011D941F011D941F0121
S2140600901D941F011D941F011D941F011D941F0111
S2140600A01D941F011D941F011D941F011D941F0101
S2140600B01D941F011D941F011D941F011D941F01F1
S2140600C01D941F011D941F011D941F011D941F01E1
S2140600D01D941F011D941F011D941F011D941F01D1
S2140600E01D941F011D941F011D947E091D949209DF
S2140600F01D9488091D941F011D941F011D941F0140
S2140601001D941F011D941F011D941F011D941F01A0
S2140601101D941F011D941F011D941F011D941F0190
S2140601201D941F011D941F011D941F011D941F0180
S2140601301D941F011D941F011D941F011D941F0170
S2140601401D941F011D941F011D941F011D941F0160
S2140601501D941F011D941F011D941F011D941F0150
S2140601601D9460091D9474091D946A091D941F0147
S2140601701D941F011D941F011D941F011D941F0130
S2140601801D941F011D941F011D941F011D941F0120
S2140601901D941F011D941F011D941F011D941F0110
S2140601A01D941F011D941F011D941F011D941F0100
S2140601B01D941F011D941F011D941F011D941F01F0
S2140601C01D941F011D941F011D941F011D941F01E0
S2140601D01D941F011D941F011D941F011D941F01D0
S2140601E01D941F011D941F011D941F011D941F01C0
S2140601F01D941F011D941F011D941F0111241FBE6F
S214060200CFEFCDBFDFE9DEBF03E00CBF10E2A0E014
S214060210B0E2EAE1F4E106E00BBF02C007900D92F9
S214060220AA31B107D9F724E2AAE1B0E201C01D92CD
S214060230A135B207E1F71F9449081D94EE091D94EF
S21406024000003BB78BBFFB0186913BBF08953BB7CB
S2140602508BBFFB01879196913BBF089542E081C014
S21406026041E07FC08093C00188278093C1018093B8
S214060270C20147E066D0CB0108958093C40148E0EA
S21406028060C08091D00108953BB748E11D94030AEB
S2140602903BB74AE11D94030A3BB740E21D94030AA6
S2140602A03BB78BBFCB0142E21D94030A3BB70B015B
S2140602B043E21D94030A3BB76BBFFA0119BEDC0185
S2140602C040E04093CA0150E0879197918D939D93A5
S2140602D05A95D1F73BBF08953BB78BBFCB0144E297
S2140602E01D94030A3BB78BBFCB0145E21D94030A58
S2140602F03BB746E21D94030A3BB78BBFCB014AE2E7
S2140603001D94030A3BB78BBFCB014CE21D94030A30
S2140603103BB78BBFCB014DE21D94030A48E311C0E1
S21406032049E30FC028ED2093340021E02093CC014A
S21406033008952091CF0127FDFCCF22272093CA01DE
S21406034008954093CA0128ED31E020933400309397
S214060350CB016091C4017091C5018091C6019927B1
S2140603600895FC014093CA01849108958093C308BA
S214060370E0ECF8E082818823ECF78091C3080895C4
S214060380FC0180818093C308E0ECF8E08281882334
S214060390ECF78091C3080895CF93C82F882329F0D9
S2140603A080E090E21F94040904C080E090E21F9467
S2140603B01409C0931C20CF910895CF93C82F882385
S2140603C029F083E090E21F94040904C083E090E2DB
S2140603D01F941409C0931B20CF910895EF92FF92A5
S2140603E00F931F93CF93DF93C82F7B018A0180E07C
S2140603F01F94DD018C2F8F711F94B60110161106FF
S21406040094F4E7010E0D1F1D0F2EF0ECEF2EF8E00C
S214060410FF2EF02D8FEF1F94B601F7018381899387
S214060420C017D107B9F781E01F94DD01DF91CF91A0
S2140604301F910F91FF90EF900895EF92FF920F9302
S2140604401F93CF93DF93C82F7B018A0180E01F940A
S214060450DD018C2F8F7180621F94B601101611066F
S21406046054F4E7010E0D1F1DCE011F94C001219600
S214060470C017D107C9F781E01F94DD01DF91CF9140
S2140604801F910F91FF90EF900895EF92FF920F93B2
S2140604901F93CF93DF937C018B0180E01F94DD01D1
S2140604A081E61F94B6011016110694F4E7010E0DA8
S2140604B01F1D0F2EF0ECEF2EF8E0FF2EF02D8FEF1F
S2140604C01F94B601F70193819993C017D107B9F720
S2140604D081E01F94DD01DF91CF911F910F91FF9070
S2140604E0EF900895EF92FF920F931F93CF93DF93AB
S2140604F07C018B0180E01F94DD0180EA1F94B60123
S2140605001016110654F4E7010E0D1F1DCE011F949A
S214060510C0012196C017D107C9F781E01F94DD01F7
S214060520DF91CF911F910F91FF90EF90089580E095
S2140605301F94DD0181EE1F94B60181E01F94DD0154
S214060540089580E01F94DD0182EE1F94B60181E0D7
S2140605501F94DD010895CF9380E01F94DD0180E6A9
S2140605601F94B6018FEF1F94B601C82F81E01F9423
S214060570DD018C2F90E0CF910895CF93DF931F92E5
S214060580CDB7DEB741E050E0BE016F5F7F4F80E03B
S2140605901F94EE0189818260898341E050E0BE01A6
S2140605A06F5F7F4F80E01F941D028FE99CE80197DE
S2140605B0F1F700C0000082E080931D200F90DF91C7
S2140605C0CF910895CF93DF931F92CDB7DEB741E064
S2140605D050E0BE016F5F7F4F80E01F94EE01898179
S2140605E08D7F898341E050E0BE016F5F7F4F80E0DC
S2140605F01F941D0281E080931D200F90DF91CF91FE
S2140606000895CF93DF931F92CDB7DEB741E050E053
S214060610BE016F5F7F4F80E01F94EE018981816087
S214060620898341E050E0BE016F5F7F4F80E01F94F4
S2140606301D0283E080931D200F90DF91CF910895D1
S214060640CF93DF931F92CDB7DEB741E050E0BE01F1
S2140606506F5F7F4F80E01F94EE0189818E7F8983CE
S21406066041E050E0BE016F5F7F4F80E01F941D02A1
S21406067084E080931D200F90DF91CF9108951F93FD
S214060680CF93DF931F92CDB7DEB7182F41E050E029
S214060690BE016F5F7F4F81E01F94EE0121E030E0E0
S2140606A0C90102C0880F991F1A95E2F79981892B0E
S2140606B0898341E050E0BE016F5F7F4F81E01F9463
S2140606C01D020F90DF91CF911F910895CF93DF9370
S2140606D01F92CDB7DEB7198241E050E0BE016F5FCC
S2140606E07F4F81E01F941D020F90DF91CF910895F2
S2140606F01F93CF93DF931F92CDB7DEB7182F41E037
S21406070050E0BE016F5F7F4F82E01F94EE0121E04E
S21406071030E0C90102C0880F991F1A95E2F7998141
S214060720892B898341E050E0BE016F5F7F4F82E0F0
S2140607301F941D020F90DF91CF911F9108951F936E
S214060740CF93DF931F92CDB7DEB7182F41E050E068
S214060750BE016F5F7F4F84E01F94EE019981907F04
S214060760812F892B898341E050E0BE016F5F7F4F62
S21406077084E01F941D020F90DF91CF911F9108957C
S2140607801F93CF93DF931F92CDB7DEB7182F41E0A6
S21406079050E0BE016F5F7F4F84E01F94EE0120E1BC
S2140607A0129FC001112499819F70892B898341E08D
S2140607B050E0BE016F5F7F4F84E01F941D020F90CE
S2140607C0DF91CF911F9108951F93CF93DF931F92CA
S2140607D0CDB7DEB7182F41E050E0BE016F5F7F4F02
S2140607E086E01F94EE019981977D812F892B898358
S2140607F041E050E0BE016F5F7F4F86E01F941D020A
S2140608000F90DF91CF911F9108952F923F924F92AE
S2140608105F926F927F928F929F92AF92BF92CF9285
S214060820DF92EF92FF920F931F93CF93DF93CDB78E
S214060830DEB72597CDBFDEBF482EB02EA22E932E4E
S214060840842E752E662E572E81E0841568F421E0D8
S21406085090E08EEF840D843008F020E0C22ED92E6C
S2140608601C141D0434F021C00F2EF5E0CF2ED12C1B
S214060870F02DDE0111967D01212C312CE0E0F0E012
S2140608802B2D312F4A2D592D682D772D862D952DFA
S214060890022D1F94D209D7012D937D013196B8E01B
S2140608A02B0E311CEC15FD055CF3A601BE016F5F31
S2140608B07F4F8AE0840D1F941D022596CDBFDEBFAE
S2140608C0DF91CF911F910F91FF90EF90DF90CF9021
S2140608D0BF90AF909F908F907F906F905F904F9055
S2140608E03F902F9008959F92AF92BF92CF92DF923D
S2140608F0EF92FF920F931F93CF93DF93CDB7DEB79A
S2140609002597CDBFDEBF922EA32EB42EC52ED62E8D
S214060910E72EF82E192FDE011196E0E0F0E0292DDD
S2140609203A2D4B2D5C2D6D2D7E2D8F2D912F0E2F56
S2140609301F94D2092D933896E832F10581F745E0E3
S21406094050E0BE016F5F7F4F80E11F941D02259623
S214060950CDBFDEBFDF91CF911F910F91FF90EF9035
S214060960DF90CF90BF90AF909F900895CF93DF9380
S2140609701F92CDB7DEB741E050E0BE016F5F7F4FF6
S21406098087E11F94EE01898181700F90DF91CF91E8
S2140609900895CF93DF931F92CDB7DEB741E050E0C0
S2140609A0BE016F5F7F4F87E11F94EE0189818295B6
S2140609B081700F90DF91CF9108951F93CF93DF93A9
S2140609C01F92CDB7DEB7182F41E050E0BE016F5F2D
S2140609D07F4F8CE11F94EE0121E030E0C90102C092
S2140609E0880F991F1A95E2F79981892B898341E02A
S2140609F050E0BE016F5F7F4F8CE11F941D020F9083
S214060A00DF91CF911F910895CF93DF931F92CDB7B5
S214060A10DEB7198241E050E0BE016F5F7F4F8CE182
S214060A201F941D020F90DF91CF910895CF93DF9309
S214060A301F92CDB7DEB741E050E0BE016F5F7F4F35
S214060A408DE11F94EE0189818460898341E050E040
S214060A50BE016F5F7F4F8DE11F941D020F90DF91E1
S214060A60CF910895CF93DF931F92CDB7DEB741E0BF
S214060A7050E0BE016F5F7F4F8DE11F94EE018981C6
S214060A808260898341E050E0BE016F5F7F4F8DE153
S214060A901F941D020F90DF91CF910895CF93DF9399
S214060AA01F92CDB7DEB787E0898341E050E0BE01EE
S214060AB06F5F7F4F86E01F941D02198241E050E06B
S214060AC0BE016F5F7F4F81E01F941D0281E0898320
S214060AD041E050E0BE016F5F7F4F86E01F941D0227
S214060AE01F94BD028FE99CE80197F1F700C000004D
S214060AF01F94010381E01F94CC010F90DF91CF91E4
S214060B000895CF93DF931F921F92CDB7DEB7E0E42A
S214060B10F6E080EB818380E4828380E58093C008DC
S214060B2080E1818380E88093210680E01F94CC01D3
S214060B3081E01F94DD011F94A1021F94E2028EE05D
S214060B40898341E050E0BE016F5F7F4F87E01F94C8
S214060B501D028BE08A8341E050E0BE016E5F7F4F48
S214060B6080E01F941D021F9466031F9404051F94BD
S214060B704E051F9416051F94320580E01F943F030A
S214060B8081E01F943F0382E01F943F0383E01F9497
S214060B903F0384E01F943F0385E01F943F0380E0F5
S214060BA01F94DD0481E01F94DD0482E01F94DD04BB
S214060BB083E01F94DD0484E01F94DD0485E01F9423
S214060BC0DD0480E01F94780381E01F94780382E0BA
S214060BD01F94780383E01F94780384E01F947803B9
S214060BE085E01F9478038FE01F949F038FE01F9481
S214060BF0C00380E21F94E4031F94A1020F900F9097
S214060C00DF91CF91089501C000008FEF1F94B601C3
S214060C108823D1F31F94810500000895CF93DF93B0
S214060C2080E01F94DD018FEF1F94B601C82FD0E039
S214060C3081E01F94DD01209719F400001F94030637
S214060C40CE01DF91CF9108951F940E069295829558
S214060C508F7089279F70892781700895CF93DF93B9
S214060C601F92CDB7DEB71F940E068061898341E0DA
S214060C7050E0BE016F5F7F4F87E01F941D020F9006
S214060C80DF91CF9108951F940E06969587959295B7
S214060C9082958F7089279F70892781700895CF93D4
S214060CA0DF931F92CDB7DEB71F940E068062898348
S214060CB041E050E0BE016F5F7F4F87E01F941D0244
S214060CC00F90DF91CF910895CF93DF931F92CDB704
S214060CD0DEB71F940E068064898341E050E0BE01AD
S214060CE06F5F7F4F87E01F941D020F90DF91CF91B5
S214060CF00895CF93863090F4C82F1F940E0686FF6D
S214060D000FC08E709927AC01559547952C2F30E06D
S214060D1081E04217530729F080E003C080E001C057
S214060D2080E0CF9108950F931F93CF93DF93161607
S214060D3017060CF050C0EB018C011F944F06BE013F
S214060D40A19714F060E270E0C8011F947202109139
S214060D501C2000911D201F94200380E01F94CC01C8
S214060D6081E01F94CC018AE68A95F1F700C080E000
S214060D701F94CC01C5E6D0E00FC01F94C9048111AC
S214060D8012C01F942406811111C0219729F41F94BE
S214060D909702DDEFCFEF0CC01F944306882369F356
S214060DA0D0E0C0E005C0DEEFCFEF02C0DFEFCFEF4A
S214060DB000001F942E061F944F06033011F41F944E
S214060DC00103812F1F94CC018AE28A95F1F700C0B1
S214060DD08D2F9C2F02C080E090E0DF91CF911F916F
S214060DE00F910895EF92FF920F931F931F9473042B
S214060DF0B701C8011F9493061F910F91FF90EF90BD
S214060E0008950F931F93CF93DF938630F0F4EB018C
S214060E101F9479068823E1F000001F94AB028C012C
S214060E208132910528F01F94A102802F912F15C0BC
S214060E30BC01CE011F9445021F94B604882359F0C0
S214060E401F946406802F912F08C08FEF9FEF05C072
S214060E5080E090E002C0802F912FDF91CF911F9106
S214060E600F910895EF92FF920F931F93FC019081C6
S214060E709136E1F4248130E0322F22278581A901BC
S214060E80482BCA01292F220F220B80930620909307
S214060E900720209308202093092020930A202093D9
S214060EA00B2020930C2020930D20EEC0983729F4B3
S214060EB087E190E21F940409E7C0993729F487E191
S214060EC090E21F941409E0C0913791F460E082EA3C
S214060ED090E01F949C0993E088ED08B618BE84BF80
S214060EE0909380008091820081FDFCCF08BEFFCFE4
S214060EF0913569F493E088ED08B618BE84BF9093E2
S214060F0080008091820081FDFCCF08BEFFCF92371D
S214060F1029F5638170E0762F66278481682B072E75
S214060F20000C880B990B1F942101E82F20910620B0
S214060F3030910720409108205091092060910A20A0
S214060F4070910B2080910C2090910D200E2F10E0B2
S214060F50EE24E394F12C1F94F20696C0923521F502
S214060F60638170E0762F66278481682B072E000C37
S214060F70880B990B1F9427018C012091062030912F
S214060F800720409108205091092060910A20709110
S214060F900B2080910C2090910D206894EE24E1F8A9
S214060FA0F12C1F94F20670C09C3459F4858190E0AB
S214060FB0982F8827268160E070E0822B1F945601C2
S214060FC063C0933419F41F9478015EC0953419F4FF
S214060FD01F944C0159C0953669F4638170E0762FEC
S214060FE066278481682B072E000C880B990B1F94A6
S214060FF050014AC09D3669F4638170E0762F6627F5
S2140610008481682B072E000C880B990B1F946C01A5
S2140610103BC09D3469F4638170E0762F6627848131
S214061020682B072E000C880B990B1F9472012CC098
S214061030943669F4638170E0762F66278481682B80
S214061040072E000C880B990B1F947C011DC09E363C
S21406105069F4638170E0762F66278481682B072EF5
S214061060000C880B990B1F9482010EC09E3461F407
S214061070638170E0762F66278481682B072E000C26
S214061080880B990B1F9488011F910F91FF90EF9084
S2140610900895CF93DF93CDB7DEB7A397CDBFDEBF58
S2140610A0F894E0E5F0E0808182608083818181FFAC
S2140610B0FDCF81E01F94BB0981E01F94B10920E2B1
S2140610C030E280E292E2F9014E2F421B4193E81786
S2140610D0F907D1F760E482EA90E01F949C0987E15D
S2140610E090E21F94040984E190E21F94040961E0EB
S2140610F087E190E21F94E20861E084E190E21F94A3
S214061100E20861E081E190E21F94E20861E08EE089
S21406111090E21F94E20881E190E21F9414098EE0A3
S21406112090E21F9404091F94810501E31CE42CE455
S2140611303CE44CE450E060E070E081E01F94050477
S21406114002E32CE43CE44CE450E060E070E082E02D
S2140611501F94050403E32CE43CE44CE450E060E012
S21406116070E083E01F94050404E32CE43CE44CE4BE
S21406117050E060E070E084E01F94050405E32CE48C
S2140611803CE44CE450E060E070E085E01F94050423
S21406119081E01F9479068823D9F3000081E08093C6
S2140611A01A20BE016F5F7F4F1F94010721E030E0D3
S2140611B02C0F3D1F820F931FFC011082C9011F943E
S2140611C03207E6CF662381F0DC01ED91FC9111979C
S2140611D021E030E0A90112960C9002C0440F551F7C
S2140611E00A94E2F741830895DC01ED91FC9111978C
S2140611F021E030E0A90112960C9002C0440F551F5C
S2140612000A94E2F742830895DC01ED91FC9111976A
S21406121021E030E0A90112960C9002C0440F551F3B
S2140612200A94E2F745830895DC01ED91FC91119747
S21406123021E030E0A90112960C9002C0440F551F1B
S2140612400A94E2F7468308951F920F920FB60F92FE
S21406125011240F900FBE0F901F9018951F920F9295
S2140612600FB60F9211240F900FBE0F901F90189571
S2140612701F920F920FB60F9211240F900FBE0F906B
S2140612801F9018951F920F920FB60F9211240F906B
S2140612900FBE0F901F9018951F920F920FB60F92C3
S2140612A011240F900FBE0F901F9018951F920F9245
S2140612B00FB60F9211240F900FBE0F901F90189521
S2140612C01F920F920FB60F9211240F900FBE0F901B
S2140612D01F9018951F920F920FB60F9211240F901B
S2140612E00FBE0F901F9018951F920F920FB60F9273
S2140612F011240F900FBE0F901F9018951F920F92F5
S2140613000FB60F9211240F900FBE0F901F901895D0
S2140613101F920F920FB60F9211240F900FBE0F90CA
S2140613201F9018951F920F920FB60F9211240F90CA
S2140613300FBE0F901F9018950F93CF93DF931F92B3
S214061340CDB7DEB72FB72983F8941BBEFC0108ED90
S21406135004BF608389818FBF0F90DF91CF910F9175
S2140613600895E0E5F0E09081282F2095922390835B
S2140613709081892308950F931F93CF93C82F00E477
S21406138010E0F8016081687F682B80E490E01F9487
S2140613909C09F80180818C23CF911F910F910895A7
S2140613A097FB10F8169400080F93083098F008502C
S2140613B0232F342F452F562F672F782F892F902DC2
S2140613C0F4CF05949795879577956795579547959E
S2140613D0379527950A95AAF70F910895F894FFCFA3
S2140613E0EE27FF2719BEDC0143E24093CA0150E010
S2140613F02DE90D901D9020933400E89532965A9567
S214061400C1F711240895FC014093CA012DE92093E3
S20E0614103400E89511243BBF08954A
S21406141A20060740060405040302010000006006CB
S20E06142A05600604E00701E007006F
S804060000F5
