:0200000260009C
:100000001D94FE001D941F011D941F011D941F01CE
:100010001D941F011D941F011D941F011D941F019C
:100020001D941F011D941F011D941F011D941F018C
:100030001D941F011D941F011D941F011D941F017C
:100040001D941F011D941F011D941F011D941F016C
:100050001D941F011D941F011D941F011D941F015C
:100060001D941F011D9461071D9475071D946B0756
:100070001D947F071D9493071D9489071D941F01EC
:100080001D941F011D941F011D941F011D941F012C
:100090001D941F011D941F011D941F011D941F011C
:1000A0001D941F011D941F011D941F011D941F010C
:1000B0001D941F011D941F011D941F011D941F01FC
:1000C0001D941F011D941F011D941F011D941F01EC
:1000D0001D941F011D941F011D941F011D941F01DC
:1000E0001D941F011D941F011D94BB071D94CF0774
:1000F0001D94C5071D941F011D941F011D941F0110
:100100001D941F011D941F011D941F011D941F01AB
:100110001D941F011D941F011D941F011D941F019B
:100120001D941F011D941F011D941F011D941F018B
:100130001D941F011D941F011D941F011D941F017B
:100140001D941F011D941F011D941F011D941F016B
:100150001D941F011D941F011D941F011D941F015B
:100160001D949D071D94B1071D94A7071D941F01A1
:100170001D941F011D941F011D941F011D941F013B
:100180001D941F011D941F011D941F011D941F012B
:100190001D941F011D941F011D941F011D941F011B
:1001A0001D941F011D941F011D941F011D941F010B
:1001B0001D941F011D941F011D941F011D941F01FB
:1001C0001D941F011D941F011D941F011D941F01EB
:1001D0001D941F011D941F011D941F011D941F01DB
:1001E0001D941F011D941F011D941F011D941F01CB
:1001F0001D941F011D941F011D941F0111241FBE7A
:10020000CFEFCDBFDFE9DEBF03E00CBF10E2A0E01F
:10021000B0E2E4E9F0E106E00BBF02C007900D9206
:10022000AA30B107D9F724E2AAE0B0E201C01D92DA
:10023000A134B207E1F71F94A1061D942B081D9469
:1002400000003BB78BBFFB0186913BBF08953BB7D6
:100250008BBFFB01879196913BBF089542E081C01F
:1002600041E07FC08093C00188278093C1018093C3
:10027000C20147E066D0CB0108958093C40148E0F5
:1002800060C08091D00108953BB748E11D944008BB
:100290003BB74AE11D9440083BB740E21D9440083B
:1002A0003BB78BBFCB0142E21D9440083BB70B012B
:1002B00043E21D9440083BB76BBFFA0119BEDC0155
:1002C00040E04093CA0150E0879197918D939D93B0
:1002D0005A95D1F73BBF08953BB78BBFCB0144E2A2
:1002E0001D9440083BB78BBFCB0145E21D944008ED
:1002F0003BB746E21D9440083BB78BBFCB014AE2B7
:100300001D9440083BB78BBFCB014CE21D944008C5
:100310003BB78BBFCB014DE21D94400848E311C0B1
:1003200049E30FC028ED2093340021E02093CC0155
:1003300008952091CF0127FDFCCF22272093CA01E9
:1003400008954093CA0128ED31E0209334003093A2
:10035000CB016091C4017091C5018091C6019927BC
:100360000895FC014093CA01849108958093C308C5
:10037000E0ECF8E082818823ECF78091C3080895CF
:10038000FC0180818093C308E0ECF8E0828188233F
:10039000ECF78091C3080895CF93C82F882329F0E4
:1003A00080E090E21F94410704C080E090E21F9437
:1003B0005107C0930C20CF910895CF93C82F882365
:1003C00029F083E090E21F94410704C083E090E2AB
:1003D0001F945107C0930B20CF910895EF92FF9285
:1003E0000F931F93CF93DF93C82F7B018A0180E087
:1003F0001F94DD018C2F8F711F94B601101611060A
:1004000094F4E7010E0D1F1D0F2EF0ECEF2EF8E017
:10041000FF2EF02D8FEF1F94B601F7018381899392
:10042000C017D107B9F781E01F94DD01DF91CF91AB
:100430001F910F91FF90EF900895EF92FF920F930D
:100440001F93CF93DF93C82F7B018A0180E01F9415
:10045000DD018C2F8F7180621F94B601101611067A
:1004600054F4E7010E0D1F1DCE011F94C00121960B
:10047000C017D107C9F781E01F94DD01DF91CF914B
:100480001F910F91FF90EF900895EF92FF920F93BD
:100490001F93CF93DF937C018B0180E01F94DD01DC
:1004A00081E61F94B6011016110694F4E7010E0DB3
:1004B0001F1D0F2EF0ECEF2EF8E0FF2EF02D8FEF2A
:1004C0001F94B601F70193819993C017D107B9F72B
:1004D00081E01F94DD01DF91CF911F910F91FF907B
:1004E000EF90089580E01F94DD0182EE1F94B60125
:1004F00081E01F94DD010895CF9380E01F94DD011A
:1005000080E61F94B6018FEF1F94B601C82F81E0DB
:100510001F94DD018C2F90E0CF910895CF93DF934E
:100520001F92CDB7DEB741E050E0BE016F5F7F4F55
:1005300080E01F94EE0189818260898341E050E070
:10054000BE016F5F7F4F80E01F941D028FE99CE822
:100550000197F1F700C0000082E080930D200F901A
:10056000DF91CF910895CF93DF931F92CDB7DEB780
:1005700041E050E0BE016F5F7F4F80E01F94EE01CD
:1005800089818D7F898341E050E0BE016F5F7F4F9D
:1005900080E01F941D0281E080930D200F90DF9179
:1005A000CF910895CF93DF931F92CDB7DEB741E08F
:1005B00050E0BE016F5F7F4F80E01F94EE018981A4
:1005C0008160898341E050E0BE016F5F7F4F80E032
:1005D0001F941D0283E080930D200F90DF91CF9137
:1005E00008951F93CF93DF931F92CDB7DEB7182FD7
:1005F00041E050E0BE016F5F7F4F81E01F94EE014C
:1006000021E030E0C90102C0880F991F1A95E2F776
:100610009981892B898341E050E0BE016F5F7F4F54
:1006200081E01F941D020F90DF91CF911F910895DB
:10063000CF93DF931F92CDB7DEB7198241E050E030
:10064000BE016F5F7F4F81E01F941D020F90DF910D
:10065000CF9108951F93CF93DF931F92CDB7DEB74D
:10066000182F41E050E0BE016F5F7F4F82E01F9482
:10067000EE0121E030E0C90102C0880F991F1A95F0
:10068000E2F79981892B898341E050E0BE016F5FD9
:100690007F4F82E01F941D020F90DF91CF911F9139
:1006A00008951F93CF93DF931F92CDB7DEB7182F16
:1006B00041E050E0BE016F5F7F4F84E01F94EE0188
:1006C0009981907F812F892B898341E050E0BE0181
:1006D0006F5F7F4F84E01F941D020F90DF91CF91D9
:1006E0001F9108951F93CF93DF931F92CDB7DEB76D
:1006F000182F41E050E0BE016F5F7F4F84E01F94F0
:10070000EE0120E1129FC001112499819F70892B75
:10071000898341E050E0BE016F5F7F4F84E01F940A
:100720001D020F90DF91CF911F9108951F93CF93DA
:10073000DF931F92CDB7DEB7182F41E050E0BE0126
:100740006F5F7F4F86E01F94EE019981977D812F27
:10075000892B898341E050E0BE016F5F7F4F86E0C7
:100760001F941D020F90DF91CF911F9108952F923A
:100770003F924F925F926F927F928F929F92AF9231
:10078000BF92CF92DF92EF92FF920F931F93CF937E
:10079000DF93CDB7DEB72597CDBFDEBF482EB02E95
:1007A000A22E932E842E752E662E572E81E0841550
:1007B00068F421E090E08EEF840D843008F020E0B2
:1007C000C22ED92E1C141D0434F021C00F2EF5E0CA
:1007D000CF2ED12CF02DDE0111967D01212C312C54
:1007E000E0E0F0E02B2D312F4A2D592D682D772D8B
:1007F000862D952D022D1F940F08D7012D937D0175
:100800003196B8E02B0E311CEC15FD055CF3A6010A
:10081000BE016F5F7F4F8AE0840D1F941D022596F5
:10082000CDBFDEBFDF91CF911F910F91FF90EF9071
:10083000DF90CF90BF90AF909F908F907F906F9000
:100840005F904F903F902F900895CF93DF931F922A
:10085000CDB7DEB741E050E0BE016F5F7F4F87E16B
:100860001F94EE01898181700F90DF91CF910895DF
:100870001F93CF93DF931F92CDB7DEB7182F41E0C0
:1008800050E0BE016F5F7F4F8CE11F94EE0121E0CD
:1008900030E0C90102C0880F991F1A95E2F79981CB
:1008A000892B898341E050E0BE016F5F7F4F8CE16F
:1008B0001F941D020F90DF91CF911F910895CF9348
:1008C000DF931F92CDB7DEB7198241E050E0BE0141
:1008D0006F5F7F4F8CE11F941D020F90DF91CF91CE
:1008E0000895CF93DF931F92CDB7DEB741E050E07C
:1008F000BE016F5F7F4F8DE11F94EE01898184609F
:10090000898341E050E0BE016F5F7F4F8DE11F940E
:100910001D020F90DF91CF910895CF93DF931F9227
:10092000CDB7DEB741E050E0BE016F5F7F4F8DE194
:100930001F94EE0189818260898341E050E0BE010D
:100940006F5F7F4F8DE11F941D020F90DF91CF915C
:100950000895CF93DF931F92CDB7DEB787E08983E9
:1009600041E050E0BE016F5F7F4F86E01F941D02A3
:10097000198241E050E0BE016F5F7F4F81E01F941C
:100980001D0281E0898341E050E0BE016F5F7F4F2F
:1009900086E01F941D021F948E028FE99CE8019748
:1009A000F1F700C000001F94D20281E01F94CC0137
:1009B0000F90DF91CF910895CF93DF931F921F92F5
:1009C000CDB7DEB7E0E4F6E080EB818380E482839C
:1009D00080E58093C00880E1818380E880932106D0
:1009E00080E01F94CC0181E01F94DD011F9472020E
:1009F0001F94B3028EE0898341E050E0BE016F5F37
:100A00007F4F87E01F941D028BE08A8341E050E016
:100A1000BE016E5F7F4F80E01F941D021F9418037C
:100A20001F945F041F94A9041F9471041F948D04E4
:100A300080E01F94F10281E01F94F10282E01F9494
:100A4000F10283E01F94F10284E01F94F10285E03B
:100A50001F94F10280E01F94380481E01F94380451
:100A600082E01F94380483E01F94380484E01F94CC
:100A7000380485E01F94380480E01F942A0381E045
:100A80001F942A0382E01F942A0383E01F942A0301
:100A900084E01F942A0385E01F942A038FE01F94AB
:100AA00051038FE01F94720380E21F9496031F94FA
:100AB00072020F900F90DF91CF91089501C0000056
:100AC0008FEF1F94B6018823D1F31F94DC0400003C
:100AD0000895CF93DF9380E01F94DD018FEF1F9483
:100AE000B601C82FD0E081E01F94DD01209719F4F2
:100AF00000001F945E05CE01DF91CF910895CF9342
:100B0000DF931F92CDB7DEB71F9469058064898398
:100B100041E050E0BE016F5F7F4F87E01F941D02F0
:100B20000F90DF91CF910895CF93863090F4C82F26
:100B30001F94690586FF0FC08E709927AC015595EB
:100B400047952C2F30E081E04217530729F080E0D1
:100B500003C080E001C080E0CF9108950F931F9300
:100B6000CF93DF938630F0F4EB011F949405882334
:100B7000E1F000001F947C028C018132910528F085
:100B80001F947202802F912F15C0BC01CE011F94BB
:100B900045021F942504882359F01F947F05802F58
:100BA000912F08C08FEF9FEF05C080E090E002C05A
:100BB000802F912FDF91CF911F910F910895FC010C
:100BC0008081883729F486E090E21F9441070895D8
:100BD000893729F486E090E21F9451070895813700
:100BE00091F460E082EA90E01F94D90793E088EDE9
:100BF00008B618BE84BF909380008091820081FD6A
:100C0000FCCF08BEFFCF813569F493E088ED08B6CC
:100C100018BE84BF909380008091820081FDFCCF3C
:100C200008BEFFCF823769F4638170E0762F6627B4
:100C30008481682B072E000C880B990B1F942101CF
:100C40000895823569F4638170E0762F6627848188
:100C5000682B072E000C880B990B1F942701089511
:100C60008C3459F4858190E0982F8827268160E0A4
:100C700070E0822B1F9456010895833419F41F9459
:100C800078010895853419F41F944C010895853630
:100C900069F4638170E0762F66278481682B072EC4
:100CA000000C880B990B1F94500108958D3669F440
:100CB000638170E0762F66278481682B072E000CF5
:100CC000880B990B1F946C0108958D3469F463812E
:100CD00070E0762F66278481682B072E000C880B26
:100CE000990B1F9472010895843669F4638170E052
:100CF000762F66278481682B072E000C880B990BB2
:100D00001F947C0108958E3669F4638170E0762F1C
:100D100066278481682B072E000C880B990B1F9483
:100D2000820108958E3461F4638170E0762F662726
:100D30008481682B072E000C880B990B1F94880167
:100D40000895CF93DF93CDB7DEB7A397CDBFDEBFB6
:100D5000F894E0E5F0E0808182608083818181FF0A
:100D6000FDCF81E01F94F80781E01F94EE0720E19A
:100D700030E280E192E2F9014E2F421B4193E817E5
:100D8000F907D1F760E482EA90E01F94D9071F9435
:100D9000DC0401E31CE42CE43CE44CE450E060E0BF
:100DA00070E081E01F94B70302E32CE43CE44CE4E0
:100DB00050E060E070E082E01F94B70303E32CE4AE
:100DC0003CE44CE450E060E070E083E01F94B70343
:100DD00004E32CE43CE44CE450E060E070E084E0A8
:100DE0001F94B70305E32CE43CE44CE450E060E0DE
:100DF00070E085E01F94B70361E086E090E21F9405
:100E00001F0786E090E21F94510781E01F9494052C
:100E10008823D9F3000081E080930A20BE016F5F30
:100E20007F4F1F94AE0521E030E02C0F3D1F820F55
:100E3000931FFC011082C9011F94DF05E6CF6623D2
:100E400081F0DC01ED91FC91119721E030E0A901E6
:100E500012960C9002C0440F551F0A94E2F741838A
:100E60000895DC01ED91FC91119721E030E0A9019A
:100E700012960C9002C0440F551F0A94E2F7428369
:100E80000895DC01ED91FC91119721E030E0A9017A
:100E900012960C9002C0440F551F0A94E2F7458346
:100EA0000895DC01ED91FC91119721E030E0A9015A
:100EB00012960C9002C0440F551F0A94E2F7468325
:100EC00008951F920F920FB60F9211240F900FBE2C
:100ED0000F901F9018951F920F920FB60F9211242A
:100EE0000F900FBE0F901F9018951F920F920FB684
:100EF0000F9211240F900FBE0F901F9018951F9204
:100F00000F920FB60F9211240F900FBE0F901F90EB
:100F100018951F920F920FB60F9211240F900FBECB
:100F20000F901F9018951F920F920FB60F921124D9
:100F30000F900FBE0F901F9018951F920F920FB633
:100F40000F9211240F900FBE0F901F9018951F92B3
:100F50000F920FB60F9211240F900FBE0F901F909B
:100F600018951F920F920FB60F9211240F900FBE7B
:100F70000F901F9018951F920F920FB60F92112489
:100F80000F900FBE0F901F9018951F920F920FB6E3
:100F90000F9211240F900FBE0F901F9018951F9263
:100FA0000F920FB60F9211240F900FBE0F901F904B
:100FB00018950F93CF93DF931F92CDB7DEB72FB75E
:100FC0002983F8941BBEFC0108ED04BF608389816E
:100FD0008FBF0F90DF91CF910F910895E0E5F0E082
:100FE0009081282F209592239083908189230895C2
:100FF0000F931F93CF93C82F00E410E0F801608196
:10100000687F682B80E490E01F94D907F801808105
:101010008C23CF911F910F91089597FB10F8169490
:1010200000080F93083098F00850232F342F452FD5
:10103000562F672F782F892F902DF4CF05949795F1
:1010400087957795679557954795379527950A958D
:0A105000AAF70F910895F894FFCF5E
:10105A00EE27FF2719BEDC0143E24093CA0150E0A4
:10106A002DE90D901D9020933400E89532965A95FB
:10107A00C1F711240895FC014093CA012DE9209378
:0A108A003400E89511243BBF0895DF
:0A109400200607400604E0070000F4
:040000036000000099
:00000001FF
