S0200000586D656761426F6F746C6F616465724E524632344C3031702E737265639E
S2140600001D94FE001D941F011D941F011D941F01C3
S2140600101D941F011D941F011D941F011D941F0191
S2140600201D941F011D941F011D941F011D941F0181
S2140600301D941F011D941F011D941F011D941F0171
S2140600401D941F011D941F011D941F011D941F0161
S2140600501D941F011D941F011D941F011D941F0151
S2140600601D941F011D94B2061D94C6061D94BC065B
S2140600701D94D0061D94E4061D94DA061D941F01F1
S2140600801D941F011D941F011D941F011D941F0121
S2140600901D941F011D941F011D941F011D941F0111
S2140600A01D941F011D941F011D941F011D941F0101
S2140600B01D941F011D941F011D941F011D941F01F1
S2140600C01D941F011D941F011D941F011D941F01E1
S2140600D01D941F011D941F011D941F011D941F01D1
S2140600E01D941F011D941F011D940C071D942007C7
S2140600F01D9416071D941F011D941F011D941F01B4
S2140601001D941F011D941F011D941F011D941F01A0
S2140601101D941F011D941F011D941F011D941F0190
S2140601201D941F011D941F011D941F011D941F0180
S2140601301D941F011D941F011D941F011D941F0170
S2140601401D941F011D941F011D941F011D941F0160
S2140601501D941F011D941F011D941F011D941F0150
S2140601601D94EE061D9402071D94F8061D941F01A5
S2140601701D941F011D941F011D941F011D941F0130
S2140601801D941F011D941F011D941F011D941F0120
S2140601901D941F011D941F011D941F011D941F0110
S2140601A01D941F011D941F011D941F011D941F0100
S2140601B01D941F011D941F011D941F011D941F01F0
S2140601C01D941F011D941F011D941F011D941F01E0
S2140601D01D941F011D941F011D941F011D941F01D0
S2140601E01D941F011D941F011D941F011D941F01C0
S2140601F01D941F011D941F011D941F0111241FBE6F
S214060200CFEFCDBFDFE9DEBF03E00CBF10E2A0E014
S214060210B0E2E4E6FFE006E00BBF02C007900D92F0
S214060220A033B107D9F724E2A0E3B0E201C01D92DD
S214060230A936B207E1F71F94F3051D94B0071D947F
S21406024000008093C308E0ECF8E082818823ECF790
S2140602508091C3080895FC0180818093C308E0EC72
S214060260F8E082818823ECF78091C3080895CF933F
S214060270C82F882329F080E090E21F94920604C0D7
S21406028080E090E21F94A206C0933420CF91089592
S214060290CF93C82F882329F083E090E21F94920616
S2140602A004C083E090E21F94A206C0933320CF9149
S2140602B00895EF92FF920F931F93CF93DF93C82F65
S2140602C07B018A0180E01F9448018C2F8F711F9452
S2140602D021011016110694F4E7010E0D1F1D0F2EB0
S2140602E0F0ECEF2EF8E0FF2EF02D8FEF1F94210195
S2140602F0F70183818993C017D107B9F781E01F9468
S2140603004801DF91CF911F910F91FF90EF900895CE
S214060310EF92FF920F931F93CF93DF93C82F7B0125
S2140603208A0180E01F9448018C2F8F7180621F948B
S21406033021011016110654F4E7010E0D1F1DCE01FD
S2140603401F942B012196C017D107C9F781E01F9489
S2140603504801DF91CF911F910F91FF90EF9008957E
S214060360EF92FF920F931F93CF93DF937C018B013F
S21406037080E01F94480181E61F942101101611069D
S21406038094F4E7010E0D1F1D0F2EF0ECEF2EF8E08D
S214060390FF2EF02D8FEF1F942101F701938199937D
S2140603A0C017D107B9F781E01F944801DF91CF91B6
S2140603B01F910F91FF90EF90089580E01F944801DB
S2140603C082EE1F94210181E01F9448010895CF9381
S2140603D080E01F94480180E61F9421018FEF1F944A
S2140603E02101C82F81E01F9448018C2F90E0CF9101
S2140603F00895CF93DF931F92CDB7DEB741E050E066
S214060400BE016F5F7F4F80E01F945901898182602D
S214060410898341E050E0BE016F5F7F4F80E01F9406
S21406042088018FE99CE80197F1F700C0000082E09A
S214060430809335200F90DF91CF910895CF93DF9369
S2140604401F92CDB7DEB741E050E0BE016F5F7F4F2B
S21406045080E01F94590189818D7F898341E050E0B1
S214060460BE016F5F7F4F80E01F94880181E0809316
S21406047035200F90DF91CF910895CF93DF931F928B
S214060480CDB7DEB741E050E0BE016F5F7F4F80E03C
S2140604901F94590189818160898341E050E0BE013D
S2140604A06F5F7F4F80E01F94880183E0809335203E
S2140604B00F90DF91CF9108951F93CF93DF931F92EE
S2140604C0CDB7DEB7182F41E050E0BE016F5F7F4F15
S2140604D081E01F94590121E030E0C90102C0880F6F
S2140604E0991F1A95E2F79981892B898341E050E096
S2140604F0BE016F5F7F4F81E01F9488010F90DF91EA
S214060500CF911F910895CF93DF931F92CDB7DEB795
S214060510198241E050E0BE016F5F7F4F81E01F9475
S21406052088010F90DF91CF9108951F93CF93DF93A5
S2140605301F92CDB7DEB7182F41E050E0BE016F5FC1
S2140605407F4F82E01F94590121E030E0C90102C0C6
S214060550880F991F1A95E2F79981892B898341E0BE
S21406056050E0BE016F5F7F4F82E01F9488010F90B8
S214060570DF91CF911F9108951F93CF93DF931F921C
S214060580CDB7DEB7182F41E050E0BE016F5F7F4F54
S21406059084E01F9459019981907F812F892B898346
S2140605A041E050E0BE016F5F7F4F84E01F948801F4
S2140605B00F90DF91CF911F9108951F93CF93DF93EE
S2140605C01F92CDB7DEB7182F41E050E0BE016F5F31
S2140605D07F4F84E01F94590120E1129FC001112429
S2140605E099819F70892B898341E050E0BE016F5F39
S2140605F07F4F84E01F9488010F90DF91CF911F9163
S21406060008951F93CF93DF931F92CDB7DEB7182FAB
S21406061041E050E0BE016F5F7F4F86E01F945901B0
S2140606209981977D812F892B898341E050E0BE0111
S2140606306F5F7F4F86E01F9488010F90DF91CF9102
S2140606401F9108952F923F924F925F926F927F92DC
S2140606508F929F92AF92BF92CF92DF92EF92FF92C7
S2140606600F931F93CF93DF93CDB7DEB72597CDBFF6
S214060670DEBF482EB02EA22E932E842E752E662E04
S214060680572E81E0841568F421E090E08EEF840D05
S214060690843008F020E0C22ED92E1C141D0434F037
S2140606A021C00F2EF5E0CF2ED12CF02DDE011196AF
S2140606B07D01212C312CE0E0F0E02B2D312F4A2D48
S2140606C0592D682D772D862D952D022D1F946007A2
S2140606D0D7012D937D013196B8E02B0E311CEC1513
S2140606E0FD055CF3A601BE016F5F7F4F8AE0840DB1
S2140606F01F9488012596CDBFDEBFDF91CF911F914F
S2140607000F91FF90EF90DF90CF90BF90AF909F90A5
S2140607108F907F906F905F904F903F902F900895A8
S214060720CF93DF931F92CDB7DEB741E050E0BE0110
S2140607306F5F7F4F87E11F945901898181700F9003
S214060740DF91CF9108951F93CF93DF931F92CDB776
S214060750DEB7182F41E050E0BE016F5F7F4F8CE199
S2140607601F94590121E030E0C90102C0880F991F85
S2140607701A95E2F79981892B898341E050E0BE01FC
S2140607806F5F7F4F8CE11F9488010F90DF91CF91AA
S2140607901F910895CF93DF931F92CDB7DEB71982C8
S2140607A041E050E0BE016F5F7F4F8CE11F948801E9
S2140607B00F90DF91CF910895CF93DF931F92CDB719
S2140607C0DEB741E050E0BE016F5F7F4F8DE11F94BC
S2140607D0590189818460898341E050E0BE016F5FDC
S2140607E07F4F8DE11F9488010F90DF91CF9108957A
S2140607F0CF93DF931F92CDB7DEB741E050E0BE0140
S2140608006F5F7F4F8DE11F945901898182608983CE
S21406081041E050E0BE016F5F7F4F8DE11F94880177
S2140608200F90DF91CF910895CF93DF931F92CDB7A8
S214060830DEB787E0898341E050E0BE016F5F7F4FF9
S21406084086E01F948801198241E050E0BE016F5F82
S2140608507F4F81E01F94880181E0898341E050E064
S214060860BE016F5F7F4F86E01F9488011F94F901D3
S2140608708FE99CE80197F1F700C000001F943D023F
S21406088081E01F9437010F90DF91CF910895CF93A3
S214060890DF931F921F92CDB7DEB7E0E4F6E080EB5B
S2140608A0818380E4828380E58093C00880E181832B
S2140608B080E88093210680E01F94370181E01F942C
S2140608C048011F94DD011F941E028EE0898341E0D5
S2140608D050E0BE016F5F7F4F87E01F9488018BE074
S2140608E08A8341E050E0BE016E5F7F4F80E01F9432
S2140608F088011F9483021F94CA031F9414041F942E
S214060900DC031F94F80380E01F945C0281E01F94CA
S2140609105C0282E01F945C0283E01F945C0284E023
S2140609201F945C0285E01F945C0280E01F94A3037C
S21406093081E01F94A30382E01F94A30383E01F9421
S214060940A30384E01F94A30385E01F94A30380E01B
S2140609501F94950281E01F94950282E01F949502EB
S21406096083E01F94950284E01F94950285E01F9409
S21406097095028FE01F94BC028FE01F94DD0280E292
S2140609801F9401031F94DD010F900F90DF91CF9106
S214060990089501C000008FEF1F9421018823D1F32C
S2140609A01F94470400000895CF93DF9380E01F94BA
S2140609B048018FEF1F942101C82FD0E081E01F94D5
S2140609C04801209719F400001F94C904CE01DF9150
S2140609D0CF910895CF93DF931F92CDB7DEB71F94BE
S2140609E0D4048064898341E050E0BE016F5F7F4F88
S2140609F087E01F9488010F90DF91CF910895CF93DB
S214060A00863090F4C82F1F94D40486FF0FC08E70CD
S214060A109927AC01559547952C2F30E081E0421773
S214060A20530729F080E003C080E001C080E0CF9144
S214060A3008950F931F93CF93DF938630F0F4EB0160
S214060A401F94FF048823E1F000001F94E7018C0141
S214060A508132910528F01F94DD01802F912F15C055
S214060A60BC01CE011F94B0011F949003882359F051
S214060A701F94EA04802F912F08C08FEF9FEF05C0C2
S214060A8080E090E002C0802F912FDF91CF911F91DA
S214060A900F9108950F931F93CF93DF938C01FC015C
S214060AA0C081D18169E070E2CE011F948007892B50
S214060AB029F486E090E21F94920651C06EE070E23A
S214060AC0CE011F948007892B29F486E090E21F94B6
S214060AD0A20645C063E170E2CE011F948007892B0B
S214060AE009F43DC067E170E2CE011F948007892BAA
S214060AF009F435C06BE170E2CE011F948007892B9E
S214060B0071F16FE170E2CE011F948007892B39F5EB
S214060B10F801C281D38163E270E2CE011F9480079A
S214060B20892B49F460E082EA90E01F942A07E0E009
S214060B30F0E0099414C067E270E2CE011F948007C5
S214060B40892B69F493E088ED08B618BE84BF9093A7
S214060B5080008091820081FDFCCF08BEFFCF80E03A
S214060B6090E0DF91CF911F910F910895EF92FF923B
S214060B700F931F93CF93DF93CDB7DEB76497CDBFA2
S214060B80DEBF6CE270E21F947C070097D9F089837B
S214060B909A837E0183E0E80EF11C01E010E009C0AE
S214060BA0F701819391937F010F5F1F4F0A3011055E
S214060BB059F06CE270E280E090E01F947C070097A4
S214060BC079F702C000E010E0B801CE0101961F9446
S214060BD04A056496CDBFDEBFDF91CF911F910F9178
S214060BE0FF90EF900895CF93DF93CDB7DEB7A39728
S214060BF0CDBFDEBFE0E5F0E0808182608083818144
S214060C0081FFFDCF81E01F94490781E01F943F07CF
S214060C1028E330E288E392E2F9014E2F421B419325
S214060C20E817F907D1F760E482EA90E01F942A07EE
S214060C301F94470401E31CE42CE43CE44CE450E037
S214060C4060E070E081E01F94220302E32CE43CE4BB
S214060C504CE450E060E070E082E01F94220303E379
S214060C602CE43CE44CE450E060E070E083E01F9443
S214060C70220304E32CE43CE44CE450E060E070E03D
S214060C8084E01F94220305E32CE43CE44CE450E0A5
S214060C9060E070E085E01F94220361E086E090E263
S214060CA01F94700686E090E21F94A20681E01F94C9
S214060CB0FF048823D9F3000081E080933220BE012A
S214060CC06F5F7F4F1F94190521E030E02C0F3D1F04
S214060CD0820F931FFC011082C9011F94B605E6CF4A
S214060CE0662381F0DC01ED91FC91119721E030E05E
S214060CF0A90112960C9002C0440F551F0A94E2F7FB
S214060D0041830895DC01ED91FC91119721E030E0D6
S214060D10A90112960C9002C0440F551F0A94E2F7DA
S214060D2042830895DC01ED91FC91119721E030E0B5
S214060D30A90112960C9002C0440F551F0A94E2F7BA
S214060D4045830895DC01ED91FC91119721E030E092
S214060D50A90112960C9002C0440F551F0A94E2F79A
S214060D60468308951F920F920FB60F9211240F9086
S214060D700FBE0F901F9018951F920F920FB60F92E8
S214060D8011240F900FBE0F901F9018951F920F926A
S214060D900FB60F9211240F900FBE0F901F90189546
S214060DA01F920F920FB60F9211240F900FBE0F9040
S214060DB01F9018951F920F920FB60F9211240F9040
S214060DC00FBE0F901F9018951F920F920FB60F9298
S214060DD011240F900FBE0F901F9018951F920F921A
S214060DE00FB60F9211240F900FBE0F901F901895F6
S214060DF01F920F920FB60F9211240F900FBE0F90F0
S214060E001F9018951F920F920FB60F9211240F90EF
S214060E100FBE0F901F9018951F920F920FB60F9247
S214060E2011240F900FBE0F901F9018951F920F92C9
S214060E300FB60F9211240F900FBE0F901F901895A5
S214060E401F920F920FB60F9211240F900FBE0F909F
S214060E501F9018950F93CF93DF931F92CDB7DEB7EB
S214060E602FB72983F8941BBEFC0108ED04BF6083E8
S214060E7089818FBF0F90DF91CF910F910895E0E59E
S214060E80F0E09081282F20959223908390818923E5
S214060E9008950F931F93CF93C82F00E410E0F80130
S214060EA06081687F682B80E490E01F942A07F8012B
S214060EB080818C23CF911F910F91089597FB10F890
S214060EC0169400080F93083098F00850232F342FF6
S214060ED0452F562F672F782F892F902DF4CF059400
S214060EE09795879577956795579547953795279557
S214060EF00A95AAF70F91089540E350E21D948907D4
S214060F00FB01DC018D91019080190110D9F3990B34
S214060F100895FA01A191B081009719F41097E1F0AF
S214060F20CD01DC01CD010D90002011F4C00113C0E7
S214060F30FB012191222319F02015D9F7F3CFFB01E7
S214060F402191201519F41E92119606C02223C1F788
S214060F500D900020A1F7D001FA01A193B083089561
S208060F60F894FFCF28
S214060F64200607400604E0070074737431007473A1
S214060F7474320062726500626C62006270650072AA
S214060F8473740061707000626F6F7400202C00002A
S804060000F5
