S0200000586D656761426F6F746C6F616465724E524632344C3031702E737265639E
S2140600001D94FE001D941F011D941F011D941F01C3
S2140600101D941F011D941F011D941F011D941F0191
S2140600201D941F011D941F011D941F011D941F0181
S2140600301D941F011D941F011D941F011D941F0171
S2140600401D941F011D941F011D941F011D941F0161
S2140600501D941F011D941F011D941F011D941F0151
S2140600601D941F011D94030A1D94170A1D940D0A5C
S2140600701D94210A1D94350A1D942B0A1D941F01F2
S2140600801D941F011D941F011D941F011D941F0121
S2140600901D941F011D941F011D941F011D941F0111
S2140600A01D941F011D941F011D941F011D941F0101
S2140600B01D941F011D941F011D941F011D941F01F1
S2140600C01D941F011D941F011D941F011D941F01E1
S2140600D01D941F011D941F011D941F011D941F01D1
S2140600E01D941F011D941F011D945D0A1D94710A1F
S2140600F01D94670A1D941F011D941F011D941F0160
S2140601001D941F011D941F011D941F011D941F01A0
S2140601101D941F011D941F011D941F011D941F0190
S2140601201D941F011D941F011D941F011D941F0180
S2140601301D941F011D941F011D941F011D941F0170
S2140601401D941F011D941F011D941F011D941F0160
S2140601501D941F011D941F011D941F011D941F0150
S2140601601D943F0A1D94530A1D94490A1D941F01A7
S2140601701D941F011D941F011D941F011D941F0130
S2140601801D941F011D941F011D941F011D941F0120
S2140601901D941F011D941F011D941F011D941F0110
S2140601A01D941F011D941F011D941F011D941F0100
S2140601B01D941F011D941F011D941F011D941F01F0
S2140601C01D941F011D941F011D941F011D941F01E0
S2140601D01D941F011D941F011D941F011D941F01D0
S2140601E01D941F011D941F011D941F011D941F01C0
S2140601F01D941F011D941F011D941F0111241FBE6F
S214060200CFEFCDBFDFE9DEBF03E00CBF10E2A0E014
S214060210B0E2E8E7FCE106E00BBF02C007900D92ED
S214060220A036B107D9F724E2A0E6B0E201C01D92D7
S214060230A739B207E1F71F9409091D941D0E1D94F0
S21406024000003BB78BBFFB0186913BBF08953BB7CB
S2140602508BBFFB01879196913BBF089542E081C014
S21406026041E07FC08093C00188278093C1018093B8
S214060270C20147E066D0CB0108958093C40148E0EA
S21406028060C08091D00108953BB748E11D94320EB8
S2140602903BB74AE11D94320E3BB740E21D94320E40
S2140602A03BB78BBFCB0142E21D94320E3BB70B0128
S2140602B043E21D94320E3BB76BBFFA0119BEDC0152
S2140602C040E04093CA0150E0879197918D939D93A5
S2140602D05A95D1F73BBF08953BB78BBFCB0144E297
S2140602E01D94320E3BB78BBFCB0145E21D94320EF2
S2140602F03BB746E21D94320E3BB78BBFCB014AE2B4
S2140603001D94320E3BB78BBFCB014CE21D94320ECA
S2140603103BB78BBFCB014DE21D94320E48E311C0AE
S21406032049E30FC028ED2093340021E02093CC014A
S21406033008952091CF0127FDFCCF22272093CA01DE
S21406034008954093CA0128ED31E020933400309397
S214060350CB016091C4017091C5018091C6019927B1
S2140603600895FC014093CA01849108958093C308BA
S214060370E0ECF8E082818823ECF78091C3080895C4
S214060380FC0180818093C308E0ECF8E08281882334
S214060390ECF78091C3080895CF93C82F882329F0D9
S2140603A080E090E21F94E30904C080E090E21F9488
S2140603B0F309C0936220CF910895CF93C82F882360
S2140603C029F083E090E21F94E30904C083E090E2FC
S2140603D01F94F309C0936120CF910895EF92FF9280
S2140603E00F931F93CF93DF93C82F7B018A0180E07C
S2140603F01F94DD018C2F8F711F94B60110161106FF
S21406040094F4E7010E0D1F1D0F2EF0ECEF2EF8E00C
S214060410FF2EF02D8FEF1F94B601F7018381899387
S214060420C017D107B9F781E01F94DD01DF91CF91A0
S2140604301F910F91FF90EF900895EF92FF920F9302
S2140604401F93CF93DF93C82F7B018A0180E01F940A
S214060450DD018C2F8F7180621F94B601101611066F
S21406046054F4E7010E0D1F1DCE011F94C001219600
S214060470C017D107C9F781E01F94DD01DF91CF9140
S2140604801F910F91FF90EF900895EF92FF920F93B2
S2140604901F93CF93DF937C018B0180E01F94DD01D1
S2140604A081E61F94B6011016110694F4E7010E0DA8
S2140604B01F1D0F2EF0ECEF2EF8E0FF2EF02D8FEF1F
S2140604C01F94B601F70193819993C017D107B9F720
S2140604D081E01F94DD01DF91CF911F910F91FF9070
S2140604E0EF900895EF92FF920F931F93CF93DF93AB
S2140604F07C018B0180E01F94DD0180EA1F94B60123
S2140605001016110654F4E7010E0D1F1DCE011F949A
S214060510C0012196C017D107C9F781E01F94DD01F7
S214060520DF91CF911F910F91FF90EF90089580E095
S2140605301F94DD0181EE1F94B60181E01F94DD0154
S214060540089580E01F94DD0182EE1F94B60181E0D7
S2140605501F94DD010895CF9380E01F94DD0180E6A9
S2140605601F94B6018FEF1F94B601C82F81E01F9423
S214060570DD018C2F90E0CF910895CF93DF931F92E5
S214060580CDB7DEB741E050E0BE016F5F7F4F80E03B
S2140605901F94EE0189818260898341E050E0BE01A6
S2140605A06F5F7F4F80E01F941D028FE99CE80197DE
S2140605B0F1F700C0000082E0809363200F90DF9181
S2140605C0CF910895CF93DF931F92CDB7DEB741E064
S2140605D050E0BE016F5F7F4F80E01F94EE01898179
S2140605E08D7F898341E050E0BE016F5F7F4F80E0DC
S2140605F01F941D0281E0809363200F90DF91CF91B8
S2140606000895CF93DF931F92CDB7DEB741E050E053
S214060610BE016F5F7F4F80E01F94EE018981816087
S214060620898341E050E0BE016F5F7F4F80E01F94F4
S2140606301D0283E0809363200F90DF91CF9108958B
S214060640CF93DF931F92CDB7DEB741E050E0BE01F1
S2140606506F5F7F4F80E01F94EE0189818E7F8983CE
S21406066041E050E0BE016F5F7F4F80E01F941D02A1
S21406067084E0809363200F90DF91CF9108951F93B7
S214060680CF93DF931F92CDB7DEB7182F41E050E029
S214060690BE016F5F7F4F81E01F94EE0121E030E0E0
S2140606A0C90102C0880F991F1A95E2F79981892B0E
S2140606B0898341E050E0BE016F5F7F4F81E01F9463
S2140606C01D020F90DF91CF911F910895CF93DF9370
S2140606D01F92CDB7DEB7198241E050E0BE016F5FCC
S2140606E07F4F81E01F941D020F90DF91CF910895F2
S2140606F01F93CF93DF931F92CDB7DEB7182F41E037
S21406070050E0BE016F5F7F4F82E01F94EE0121E04E
S21406071030E0C90102C0880F991F1A95E2F7998141
S214060720892B898341E050E0BE016F5F7F4F82E0F0
S2140607301F941D020F90DF91CF911F9108951F936E
S214060740CF93DF931F92CDB7DEB7182F41E050E068
S214060750BE016F5F7F4F84E01F94EE019981907F04
S214060760812F892B898341E050E0BE016F5F7F4F62
S21406077084E01F941D020F90DF91CF911F9108957C
S2140607801F93CF93DF931F92CDB7DEB7182F41E0A6
S21406079050E0BE016F5F7F4F84E01F94EE0120E1BC
S2140607A0129FC001112499819F70892B898341E08D
S2140607B050E0BE016F5F7F4F84E01F941D020F90CE
S2140607C0DF91CF911F9108951F93CF93DF931F92CA
S2140607D0CDB7DEB7182F41E050E0BE016F5F7F4F02
S2140607E086E01F94EE019981977D812F892B898358
S2140607F041E050E0BE016F5F7F4F86E01F941D020A
S2140608000F90DF91CF911F9108952F923F924F92AE
S2140608105F926F927F928F929F92AF92BF92CF9285
S214060820DF92EF92FF920F931F93CF93DF93CDB78E
S214060830DEB72597CDBFDEBF482EB02EA22E932E4E
S214060840842E752E662E572E81E0841568F421E0D8
S21406085090E08EEF840D843008F020E0C22ED92E6C
S2140608601C141D0434F021C00F2EF5E0CF2ED12C1B
S214060870F02DDE0111967D01212C312CE0E0F0E012
S2140608802B2D312F4A2D592D682D772D862D952DFA
S214060890022D1F94360BD7012D937D013196B8E0B5
S2140608A02B0E311CEC15FD055CF3A601BE016F5F31
S2140608B07F4F8AE0840D1F941D022596CDBFDEBFAE
S2140608C0DF91CF911F910F91FF90EF90DF90CF9021
S2140608D0BF90AF909F908F907F906F905F904F9055
S2140608E03F902F9008959F92AF92BF92CF92DF923D
S2140608F0EF92FF920F931F93CF93DF93CDB7DEB79A
S2140609002597CDBFDEBF922EA32EB42EC52ED62E8D
S214060910E72EF82E192FDE011196E0E0F0E0292DDD
S2140609203A2D4B2D5C2D6D2D7E2D8F2D912F0E2F56
S2140609301F94360B2D933896E832F10581F745E07D
S21406094050E0BE016F5F7F4F80E11F941D02259623
S214060950CDBFDEBFDF91CF911F910F91FF90EF9035
S214060960DF90CF90BF90AF909F900895CF93DF9380
S2140609701F92CDB7DEB741E050E0BE016F5F7F4FF6
S21406098087E11F94EE01898181700F90DF91CF91E8
S2140609900895CF93DF931F92CDB7DEB741E050E0C0
S2140609A0BE016F5F7F4F87E11F94EE0189818295B6
S2140609B081700F90DF91CF9108951F93CF93DF93A9
S2140609C01F92CDB7DEB7182F41E050E0BE016F5F2D
S2140609D07F4F8CE11F94EE0121E030E0C90102C092
S2140609E0880F991F1A95E2F79981892B898341E02A
S2140609F050E0BE016F5F7F4F8CE11F941D020F9083
S214060A00DF91CF911F910895CF93DF931F92CDB7B5
S214060A10DEB7198241E050E0BE016F5F7F4F8CE182
S214060A201F941D020F90DF91CF910895CF93DF9309
S214060A301F92CDB7DEB741E050E0BE016F5F7F4F35
S214060A408DE11F94EE0189818460898341E050E040
S214060A50BE016F5F7F4F8DE11F941D020F90DF91E1
S214060A60CF910895CF93DF931F92CDB7DEB741E0BF
S214060A7050E0BE016F5F7F4F8DE11F94EE018981C6
S214060A808260898341E050E0BE016F5F7F4F8DE153
S214060A901F941D020F90DF91CF910895CF93DF9399
S214060AA01F92CDB7DEB787E0898341E050E0BE01EE
S214060AB06F5F7F4F86E01F941D02198241E050E06B
S214060AC0BE016F5F7F4F81E01F941D0281E0898320
S214060AD041E050E0BE016F5F7F4F86E01F941D0227
S214060AE01F94BD028FE99CE80197F1F700C000004D
S214060AF01F94010381E01F94CC010F90DF91CF91E4
S214060B000895CF93DF931F921F92CDB7DEB7E0E42A
S214060B10F6E080EB818380E4828380E58093C008DC
S214060B2080E1818380E88093210680E01F94CC01D3
S214060B3081E01F94DD011F94A1021F94E2028EE05D
S214060B40898341E050E0BE016F5F7F4F87E01F94C8
S214060B501D028BE08A8341E050E0BE016E5F7F4F48
S214060B6080E01F941D021F9466031F9404051F94BD
S214060B704E051F9416051F94320580E01F943F030A
S214060B8081E01F943F0382E01F943F0383E01F9497
S214060B903F0384E01F943F0385E01F943F0380E0F5
S214060BA01F94DD0481E01F94DD0482E01F94DD04BB
S214060BB083E01F94DD0484E01F94DD0485E01F9423
S214060BC0DD0480E01F94780381E01F94780382E0BA
S214060BD01F94780383E01F94780384E01F947803B9
S214060BE085E01F9478038FE01F949F038FE01F9481
S214060BF0C00380E21F94E4031F94A1020F900F9097
S214060C00DF91CF91089501C000008FEF1F94B601C3
S214060C108823D1F31F94810500000895CF93DF93B0
S214060C2080E01F94DD018FEF1F94B601C82FD0E039
S214060C3081E01F94DD01209719F400001F94030637
S214060C40CE01DF91CF9108951F940E069295829558
S214060C508F7089279F70892781700895CF93DF93B9
S214060C601F92CDB7DEB71F940E068061898341E0DA
S214060C7050E0BE016F5F7F4F87E01F941D020F9006
S214060C80DF91CF9108951F940E06969587959295B7
S214060C9082958F7089279F70892781700895CF93D4
S214060CA0DF931F92CDB7DEB71F940E068062898348
S214060CB041E050E0BE016F5F7F4F87E01F941D0244
S214060CC00F90DF91CF910895CF93DF931F92CDB704
S214060CD0DEB71F940E068064898341E050E0BE01AD
S214060CE06F5F7F4F87E01F941D020F90DF91CF91B5
S214060CF00895CF93863090F4C82F1F940E0686FF6D
S214060D000FC08E709927AC01559547952C2F30E06D
S214060D1081E04217530729F080E003C080E001C057
S214060D2080E0CF9108950F931F93CF93DF93161607
S214060D3017060CF050C0EB018C011F944F06BE013F
S214060D40A19714F060E270E0C8011F947202109139
S214060D506220009163201F94200380E01F94CC013C
S214060D6081E01F94CC018AE68A95F1F700C080E000
S214060D701F94CC01C5E6D0E00FC01F94C9048111AC
S214060D8012C01F942406811111C0219729F41F94BE
S214060D909702DDEFCFEF0CC01F944306882369F356
S214060DA0D0E0C0E005C0DEEFCFEF02C0DFEFCFEF4A
S214060DB000001F942E061F944F06033011F41F944E
S214060DC00103812F1F94CC018AE28A95F1F700C0B1
S214060DD08D2F9C2F02C080E090E0DF91CF911F916F
S214060DE00F910895EF92FF920F931F931F9473042B
S214060DF0B701C8011F9493061F910F91FF90EF90BD
S214060E0008950F931F93CF93DF938630F0F4EB018C
S214060E101F9479068823E1F000001F94AB028C012C
S214060E208132910528F01F94A102802F912F15C0BC
S214060E30BC01CE011F9445021F94B604882359F0C0
S214060E401F946406802F912F08C08FEF9FEF05C072
S214060E5080E090E002C0802F912FDF91CF911F9106
S214060E600F910895EF92FF920F931F93CF93DF9300
S214060E70CDB7DEB76897CDBFDEBFFC019081913651
S214060E80A1F4A6E0B0E285818C93848111968C93BA
S214060E901197838112968C931297828113968C9360
S214060EA01397818114968C93AAC1983751F587E1DA
S214060EB090E21F94E3098FE0EDE1F0E28E010F5F0A
S214060EC01F4FD80101900D928A95E1F7F80101901F
S214060ED00020E9F731977F01E01AF10A20910620F3
S214060EE030910720409108205091092060910A20F1
S214060EF070910B2080910C2090910D201F94F20685
S214060F007EC1993751F587E190E21F94F3098EE08A
S214060F10ECE2F0E28E010F5F1F4FD80101900D92B2
S214060F208A95E1F7F80101900020E9F731977F01ED
S214060F30E01AF10A209106203091072040910820F9
S214060F405091092060910A2070910B2080910C2008
S214060F5090910D201F94F20652C1933731F44381C7
S214060F60628181811F94F40A4AC1943791F56281A1
S214060F7081811F94B50A1F928F938AE390E29F930E
S214060F808F938E010F5F1F4F1F930F931F94520B65
S214060F90F80101900020E9F731977F01E01AF10A7F
S214060FA02091062030910720409108205091092074
S214060FB060910A2070910B2080910C2090910D2054
S214060FC01F94F2060F900F900F900F900F900F90B1
S214060FD016C1953719F41F94200B11C1913791F459
S214060FE060E082EA90E01F947B0A93E088ED08B6FC
S214060FF018BE84BF909380008091820081FDFCCF4E
S21406100008BEFFCF913569F493E088ED08B618BEA2
S21406101084BF909380008091820081FDFCCF08BE3D
S214061020FFCF9237E1F584818D8B83818E8B82810B
S2140610308F8B8181888F6D897E898F89988D1F9485
S21406104021011F928F938EE490E29F938F938E01D9
S2140610500F5F1F4F1F930F931F94520BF8010190BB
S2140610600020E9F731977F01E01AF10A2091062061
S21406107030910720409108205091092060910A205F
S21406108070910B2080910C2090910D201F94F206F3
S2140610900F900F900F900F900F900F90B0C0923554
S2140610A051F58481898383818A8382818B838181BA
S2140610B08C8369817A818B819C811F9427018D8B15
S2140610C09E8B209106203091072040910820509153
S2140610D0092060910A2070910B2080910C20909137
S2140610E00D206894EE24E1F8F12C8E010B5E1F4F5E
S2140610F01F94F20684C09C3499F486818983858180
S2140611008A8384818B8383818C8382818D8B818184
S2140611108E8B6D897E8989819A811F9456016FC050
S214061120933419F41F9478016AC0953419F41F9401
S2140611304C0165C0953679F48681898385818A83D4
S21406114084818B8383818C8369817A818B819C8160
S2140611501F94500154C09D3679F486818983858113
S2140611608A8384818B8383818C8369817A818B8150
S2140611709C811F946C0143C09D3479F486818983D3
S21406118085818A8384818B8383818C8369817A8136
S2140611908B819C811F94720132C0943679F48681C5
S2140611A0898385818A8384818B8383818C83698105
S2140611B07A818B819C811F947C0121C09E3679F4AE
S2140611C08681898385818A8384818B8383818C83C8
S2140611D069817A818B819C811F94820110C09E341E
S2140611E071F48681898385818A8384818B83838152
S2140611F08C8369817A818B819C811F94880168968D
S214061200CDBFDEBFDF91CF911F910F91FF90EF907C
S2140612100895CF93DF93CDB7DEB7A397CDBFDEBFD6
S214061220F894E0E5F0E0808182608083818181FF2A
S214061230FDCF81E01F949A0A81E01F94900A46E645
S21406124050E226E632E2FA018E2F841B8193E217DD
S214061250F307D1F760E482EA90E01F947B0A87E101
S21406126090E21F94E30984E190E21F94E30961E0AB
S21406127087E190E21F94C10961E084E190E21F9441
S214061280C10961E081E190E21F94C10961E08EE048
S21406129090E21F94C10981E190E21F94F3098EE063
S2140612A090E21F94E30981E0809306208DED8093FB
S2140612B007208CEC809308208BEB809309208AEA23
S2140612C080930A2010920B2010920C2010920D206C
S2140612D01F94810501E31CE42CE43CE44CE450E056
S2140612E060E070E081E01F94050402E32CE43CE431
S2140612F04CE450E060E070E082E01F94050403E3EF
S2140613002CE43CE44CE450E060E070E083E01F949C
S214061310050404E32CE43CE44CE450E060E070E0B2
S21406132084E01F94050405E32CE43CE44CE450E01A
S21406133060E070E085E01F94050481E01F9479065E
S2140613408823D9F3000081E080936020BE016F5F9A
S2140613507F4F1F94010721E030E02C0F3D1F820FC0
S214061360931FFC011082FFEF23EC39E0F15020407A
S2140613703040E1F700C00000CE0101961F94320708
S214061380DCCF662381F0DC01ED91FC91119721E01C
S21406139030E0A90112960C9002C0440F551F0A941D
S2140613A0E2F741830895DC01ED91FC91119721E067
S2140613B030E0A90112960C9002C0440F551F0A94FD
S2140613C0E2F742830895DC01ED91FC91119721E046
S2140613D030E0A90112960C9002C0440F551F0A94DD
S2140613E0E2F745830895DC01ED91FC91119721E023
S2140613F030E0A90112960C9002C0440F551F0A94BD
S214061400E2F7468308951F920F920FB60F921124A5
S2140614100F900FBE0F901F9018951F920F920FB643
S2140614200F9211240F900FBE0F901F9018951F92C3
S2140614300F920FB60F9211240F900FBE0F901F90AB
S21406144018951F920F920FB60F9211240F900FBE8B
S2140614500F901F9018951F920F920FB60F92112499
S2140614600F900FBE0F901F9018951F920F920FB6F3
S2140614700F9211240F900FBE0F901F9018951F9273
S2140614800F920FB60F9211240F900FBE0F901F905B
S21406149018951F920F920FB60F9211240F900FBE3B
S2140614A00F901F9018951F920F920FB60F92112449
S2140614B00F900FBE0F901F9018951F920F920FB6A3
S2140614C00F9211240F900FBE0F901F9018951F9223
S2140614D00F920FB60F9211240F900FBE0F901F900B
S2140614E018951F920F920FB60F9211240F900FBEEB
S2140614F00F901F9018950F93CF93DF931F92CDB73B
S214061500DEB72FB72983F8941BBEFC0108ED04BF8F
S214061510608389818FBF0F90DF91CF910F910895D9
S214061520E0E5F0E09081282F209592239083908125
S214061530892308950F931F93CF93C82F00E410E0D6
S214061540F8016081687F682B80E490E01F947B0A30
S214061550F80180818C23CF911F910F910895E0ECBE
S214061560F1E087858823ECF30895CF93DF93C82FA1
S214061570D62F1F94AF0A20E2C29FC0011124DF7146
S2140615808D2BE0ECF1E08083892F8F7181831282A8
S21406159086E08287EF93FF930F932F93EBECF1E0B1
S2140615A008ED21E004BF20832F910F91FF91EF9164
S2140615B08481DF91CF9108951F94AF0A8091CF0161
S2140615C081FF11C086E38093CA01EF93FF930F93C2
S2140615D02F93EBECF1E008ED21E004BF20832F917A
S2140615E00F91FF91EF9108951F93CF93DF93C82F26
S2140615F0D62F142F1F94DC0AE0ECF1E083E38287F3
S21406160020E2C29FC0011124DF718D2B8083892FB3
S2140616108F7181831282148385E38287EF93FF930B
S2140616200F932F93EBECF1E008ED21E004BF208347
S2140616302F910F91FF91EF91DF91CF911F91089512
S2140616401F94AF0A80E38093CA01EF93FF930F932C
S2140616502F93EBECF1E008ED21E004BF20832F91F9
S2140616600F91FF91EF91089597FB10F816940008D6
S2140616700F93083098F00850232F342F452F562FF7
S214061680672F782F892F902DF4CF059497958795F9
S2140616907795679557954795379527950A95AAF7A7
S2140616A00F9108950F931F93CF93DF93CDB7DEB7B1
S2140616B02E97CDBFDEBF0E891F8986E08C830983F1
S2140616C01A838FEF9FE78D839E83AE01465E5F4F3C
S2140616D0688D798DCE0101961F947C0B2F813885F7
S2140616E0F801E20FF31F10822E96CDBFDEBFDF9104
S2140616F0CF911F910F9108952F923F924F925F922E
S2140617006F927F928F929F92AF92BF92CF92DF9206
S214061710EF92FF920F931F93CF93DF93CDB7DEB76B
S2140617202C97CDBFDEBF7C016B018A01FC011682B9
S2140617301782838181FFBDC1CE0101964C01F70158
S2140617409381F60193FD859193FF81916F0188231E
S21406175009F4ABC1853239F493FD859193FF8191E7
S2140617606F01853229F4B70190E01F94870DE7CF05
S214061770512C312C20E02032A0F48B3269F030F464
S214061780803259F0833269F420612CC08D3239F0EC
S214061790803339F4216026C02260246023C0286086
S2140617A021C027FD27C030ED380F3A3078F426FFE3
S2140617B006C0FAE05F9E300D1124532E13C08AE051
S2140617C0389E300D1124332E20620CC08E3221F442
S2140617D026FD6BC1206406C08C3611F4206802C054
S2140617E0883641F4F60193FD859193FF81916F014A
S2140617F08111C1CF982F9F7D9554933028F40C5FA6
S2140618001F4FFFE3F9830DC0833631F0833771F03F
S214061810833509F05BC022C0F801808189830E5F9C
S2140618201F4F44244394512C540115C03801F2E04E
S2140618306F0E711CF801A080B18026FF03C0652DCF
S21406184070E002C06FEF7FEFC5012C871F947C0DFA
S2140618502C0183012C852F77222E17C03801F2E043
S2140618606F0E711CF801A080B18026FF03C0652D9F
S21406187070E002C06FEF7FEFC5012C871F94710DD5
S2140618802C012C852068222E830123FC1BC0832D69
S21406189090E048165906B0F4B70180E290E01F942F
S2140618A0870D3A94F4CFF50127FC859127FE8191A2
S2140618B05F01B70190E01F94870D31103A94F1E06E
S2140618C04F1A51084114510471F7E5C0843611F0D9
S2140618D0893639F5F80127FF07C060817181828154
S2140618E093810C5F1F4F08C060817181072E000C24
S2140618F0880B990B0E5F1F4F2F76722E97FF09C027
S21406190090958095709561957F4F8F4F9F4F206875
S214061910722E2AE030E0A4011F94BF0DA82EA81848
S21406192044C0853729F42F7EB22E2AE030E025C043
S214061930F22FF97FBF2E8F36C1F018F4883579F06E
S214061940B4C0803719F0883721F0AFC02F2F20613A
S214061950B22EB4FE0DC08B2D8460B82E09C024FFAF
S2140619600AC09F2F9660B92E06C028E030E005C054
S21406197020E130E002C020E132E0F801B7FE07C001
S21406198060817181828193810C5F1F4F06C06081E2
S214061990718180E090E00E5F1F4FA4011F94BF0D7B
S2140619A0A82EA818FB2DFF777F2E76FE0BC0372DA8
S2140619B03E7FA51450F474FE0AC072FC08C0372D8C
S2140619C03E7E05C0BA2C372D03C0BA2C01C0B52CF6
S2140619D034FF0DC0FE01EA0DF11D8081803311F43F
S2140619E0397E09C032FF06C0B394B39404C0832F71
S2140619F0867809F0B39433FD13C030FF06C05A2C20
S214061A00B31418F4530C5B18B32CB31468F4B7016C
S214061A1080E290E03C871F94870DB3943C85F5CF13
S214061A20B31410F43B1801C0312C34FF12C0B701B2
S214061A3080E390E03C871F94870D3C8532FF17C0F5
S214061A4031FD03C088E790E002C088E590E0B70164
S214061A500CC0832F867859F031FF02C08BE201C096
S214061A6080E237FD8DE2B70190E01F94870DA5143E
S214061A7038F4B70180E390E01F94870D5A94F7CFA9
S214061A80AA94F401EA0DF11D8081B70190E01F9437
S214061A90870DA110F5CF332009F451CEB70180E2A9
S214061AA090E01F94870D3A94F6CFF70186819781CA
S214061AB002C08FEF9FEF2C96CDBFDEBFDF91CF9192
S214061AC01F910F91FF90EF90DF90CF90BF90AF9051
S214061AD09F908F907F906F905F904F903F902F9043
S214061AE00895FC010590615070400110D8F7809566
S214061AF090958E0F9F1F0895FC01615070400190CF
S214061B000110D8F7809590958E0F9F1F08950F9316
S214061B101F93CF93DF93FB01238121FD03C08FEF35
S214061B209FEF28C022FF16C0468157812481358143
S214061B304217530744F4A081B1819D012F5F3F4FA2
S214061B40208331838C93268137812F5F3F4F2683F0
S214061B50378310C0EB01092F182F0084F185E02D7E
S214061B601995892BE1F68E819F8101968E839F8338
S214061B70812F902FDF91CF911F910F910895FA0133
S214061B80AA27283051F1203181F1E8946F936E7FB1
S214061B906E5F7F4F8F4F9F4FAF4FB1E03ED0B4E0A2
S214061BA03CD0670F781F891F9A1FA11D680F791FE3
S214061BB08A1F911DA11D6A0F711D811D911DA11DF4
S214061BC020D009F468943F912AE0269F1124301904
S214061BD0305D3193DEF6CF010895462F4770405D9F
S214061BE04193B3E00FD0C9F7F6CF462F4F70405D4E
S214061BF04A3318F0495D31FD4052419302D0A9F7A9
S214061C00EACFB4E0A6959795879577956795BA95A2
S214061C10C9F700976105710508959B01AC010A2E68
S214061C2006945795479537952795BA95C9F7620F3F
S212061C30731F841F951FA01D0895F894FFCFFE
S214061C3EEE27FF2719BEDC0143E24093CA0150E0A9
S214061C4E2DE90D901D9020933400E89532965A9500
S214061C5EC1F711240895FC014093CA012DE920937D
S20E061C6E3400E89511243BBF0895E4
S214061C7820060740060401DDCCBBAA000000600665
S214061C8805600604E00701E00700202C006C69677B
S214061C986874206973206F66660D0A006C69676843
S214061CA874206973206F6E0D0A00454550524F4DD5
S214061CB82076616C7565203A2025780D0A007468CA
S214061CC86520646174612069732025780D0A000012
S804060000F5
